:020000020000FC
:0200000033C00B
:0200480082C76D
:100068000FEF0DBF08E00EBF259A1BD077D55AD7E2
:1000780033D7FECF2D9A08952D980895FFCF9F93DB
:1000880092E304D09A95E9F79F9108956F938F931F
:1000980068EC8AEA8A95F1F76A95D9F78F916F919A
:1000A80008951ED024D02AD030D036D03CD042D0AB
:1000B80048D04ED054D05AD060D066D06CD072D0D0
:1000C80078D07ED084D08AD090D096D00895032F4F
:1000D800069503958D919D910A9509F0FBCF08959A
:1000E800E0E0FAE0A0E0B5E008E08DD00895E8E0AF
:1000F800FAE0A8E0B5E008E086D00895E0E1FAE08B
:10010800A6E1B5E008E07FD00895E8E1FAE0A4E2CE
:10011800B5E008E078D00895E0E2FAE0A2E3B5E0BF
:1001280008E071D00895E8E2FAE0A0E4B5E008E05C
:100138006AD00895E0E3FAE0A8E4B5E008E063D007
:100148000895E8E3FAE0A6E5B5E008E05CD0089594
:10015800E0E4FAE0A4E6B5E008E055D00895E8E464
:10016800FAE0A2E7B5E008E04ED00895E0E5FAE04D
:10017800A0E8B5E008E047D00895E8E5FAE0A8E887
:10018800B5E008E040D00895E0E6FAE0A6E9B5E079
:1001980008E039D00895E8E6FAE0A4E0B6E008E01F
:1001A80032D00895E0E7FAE0A2E1B6E008E02BD00B
:1001B8000895E8E7FAE0A0E2B6E008E024D0089560
:1001C800E0E8FAE0A8E2B6E008E01DD00895E8E823
:1001D800FAE0A6E3B6E008E016D00895E0E9FAE010
:1001E800A4E4B6E008E00FD00895E8E9FAE0A2E553
:1001F800B6E008E008D00895E0EAFAE0A0E6B6E044
:1002080008E001D0089505910D930A95E1F7089546
:1002180077E08DE295E08DD475E084E893E089D4A9
:1002280072D6089571E088E097E083D46CD671E0C7
:1002380086ED96E07ED467D671E087E296E079D4C1
:1002480062D671E088E795E074D45DD671E082EEFD
:1002580094E06FD458D671E086E794E06AD453D618
:1002680071E08AE094E065D44ED671E08DE993E0C0
:1002780060D449D671E080E393E05BD444D671E062
:1002880084EC92E056D43FD671E088E592E051D4F0
:040298003AD60895B5
:100A0000D606200308078101D6062003A406C201EA
:100A1000D606200340063F02D60620030E06BC027F
:100A200027069D031405390378054C04B0049D0383
:100A30001405B0044C041A0474045005E803B0040F
:100A40000604D20552032D059D034006EE02AA05B9
:100A50003003D606EE02AA05C4024E07EE02AA052E
:100A60005802D007EE02AA05F401F401BC02F40119
:100A7000EE02EE028403200352035203E8038403D0
:100A8000B603B6034C04E803B004B004DC057805F3
:100A9000AA05AA05DC057805A406A406DC057805E8
:100AA000D007D007DC0578050FEF07B908B908E4CF
:100AB0000093B80000E00093B900089504EA0093A1
:100AC000BC000091BC0007FFFCCF0091B900087F7B
:100AD000083009F00C944200089504E00093BC0033
:100AE0005093BB0004E80093BC000091BC0007FFDA
:100AF000FCCF08950091BC0007FFFCCF5091BB00D4
:100B0000089504E90093BC000091BC000071E1F776
:100B100008955F93C9DFD2DF50E8DFDF50E0DDDF0B
:100B200050E2DBDFEEDFCADF50E8D7DF5EEFD5DF74
:100B300055E6D3DFE6DF5F9108955F93770F770F78
:100B400056E0750FBBDF50E8C8DF572FC6DF50E017
:100B5000C4DF50E0C2DF582FC0DF592FBEDFD1DF26
:100B60005F910895D6DF01D0089522E031E0A2E13F
:100B7000B6E01CD0A2E7B5E01DD024E033E0A2E14E
:100B8000B6E014D0A2E7B5E015D026E035E0A2E14A
:100B9000B6E00CD0A4E2B5E00DD028E037E0A2E149
:100BA000B6E004D0A4E2B5E005D0089594DA722F3F
:100BB000C4DF089590DA732FC0DF089524D001D0E8
:100BC000089522E031E0A2E1B6E0F0DFA8E4B5E06C
:100BD000F1DF28E037E0A2E1B6E0E8DFA6E1B5E02A
:100BE000E9DF24E033E0A8E2B6E0E0DFA0E8B5E02A
:100BF000E1DF26E035E0A8E2B6E0D8DFA8E4B5E022
:100C0000D9DF41DA089524E033E0A2E1B6E0CEDF97
:100C1000A8E4B5E0CFDF26E035E0A2E1B6E0C6DF2C
:100C2000A4E2B5E0C7DF22E031E0A8E2B6E0BEDF33
:100C3000A0E8B5E0BFDF28E037E0A8E2B6E0B6DF25
:100C4000A8E4B5E0B7DF1FDA089524E033E0A2E1BD
:100C5000B6E0ACDFA8E4B5E0ADDF22E031E0A4E02F
:100C6000B6E0A4DFA2E7B5E0A5DF28E037E0A4E026
:100C7000B6E09CDFA4E2B5E09DDF26E035E0A2E12E
:100C8000B6E094DFA8E4B5E095DFFDD924E033E0D9
:100C9000A4E0B6E08BDFA2E7B5E08CDF22E031E034
:100CA000A2E1B6E083DFA6E9B5E084DF28E037E023
:100CB000A2E1B6E07BDFA0E0B5E07CDF26E035E036
:100CC000A4E0B6E073DFA4E2B5E074DFDCD924E091
:100CD00033E0A2E1B6E06ADFA2E7B5E06BDF26E031
:100CE00035E0A2E1B6E062DFA4E2B5E063DFCBD994
:100CF0003CDF089522E031E0A2E1B6E057DFA8E44E
:100D0000B5E058DF24E033E0A4E0B6E04FDFA2E72F
:100D1000B5E050DF26E035E0A4E0B6E047DFA4E22E
:100D2000B5E048DF28E037E0A2E1B6E03FDFA8E425
:100D3000B5E040DFA8D922E031E0A4E0B6E036DF3C
:100D4000A2E7B5E037DF24E033E0A2E1B6E02EDF32
:100D5000A6E9B5E02FDF26E035E0A2E1B6E026DF28
:100D6000A0E0B5E027DF28E037E0A4E0B6E01EDF32
:100D7000A4E2B5E01FDF87D922E031E0A2E1B6E0CE
:100D800015DFA2E7B5E016DF28E037E0A2E1B6E024
:100D90000DDFA4E2B5E00EDF76D9E7DE089522E0AC
:100DA00031E0A4E0B6E002DFA0E8B5E003DF24E034
:100DB00033E0A4E0B6E0FADEA0E8B5E0FBDE26E032
:100DC00035E0A4E0B6E0F2DEA2E3B5E0F3DE28E031
:100DD00037E0A4E0B6E0EADEA2E3B5E0EBDE97D0D0
:100DE00022E031E0A0E6B6E0E1DE91D003E00F932F
:100DF000A6E9B5E0DFDE47D9A8E4B5E0DBDE43D9FC
:100E00000F910A95A1F7B1DE0895AF93BF93A8E2C1
:100E1000B6E061D9722F91DE7AD0BF91AF915BD9E4
:100E2000732F8BDE74D0A2E1B6E055D9722F85DE28
:100E30006ED00895A4E0B6E0B9DE69D0A2E1B6E0D4
:100E4000B5DE65D0A0E2B6E0B1DE61D0A8E2B6E0E2
:100E5000ADDE5DD0A6E3B6E0A9DE59D0A4E4B6E0ED
:100E6000A5DE55D0A2E5B6E0A1DE51D0A0E6B6E001
:100E70009DDE4DD00895A0E0B5E09CDE48D0A8E00E
:100E8000B5E098DE44D0A6E1B5E094DE40D0A4E21F
:100E9000B5E090DE3CD0A2E3B5E08CDE38D0A0E433
:100EA000B5E088DE34D0A8E4B5E084DE30D0A6E535
:100EB000B5E080DE2CD0A4E6B5E07CDE28D0A2E749
:100EC000B5E078DE24D0A0E8B5E074DE20D0A8E854
:100ED000B5E070DE1CD0A6E9B5E06CDE18D0089550
:100EE00000911E00003059F0013059F0023029F015
:100EF000033049F0063049F00895A7DE0895FADE80
:100F000008955CDE089531DE089549DF08956F93FA
:100F10008F939F9364E68AE590E00196F1F70000D5
:100F20006A95C9F79F918F916F91089500E00093A2
:100F3000C5000FEC0093C40002E00093C00000E97C
:100F40000093C10006E00093C200789408950091D8
:0A0F5000C600005300931E00189520
:00000001FF
