:020000020000FC
:0200000033C00B
:02000400BEC775
:02003C00AFC74C
:02004800C2C72D
:100068000FEF0DBF08E00EBF259A1BD081D59BD797
:100078007894FFCF2D9A08952D980895FFCF9F93D8
:1000880092E304D09A95E9F79F9108956F938F931F
:1000980068EC8AEA8A95F1F76A95D9F78F916F919A
:1000A80008951ED024D02AD030D036D03CD042D0AB
:1000B80048D04ED054D05AD060D066D06CD072D0D0
:1000C80078D07ED084D08AD090D096D00895132F3F
:1000D800169513958D919D911A9509F0FBCF08956A
:1000E800E0E0FAE0A0E0B5E018E08DD00895E8E09F
:1000F800FAE0A8E0B5E018E086D00895E0E1FAE07B
:10010800A6E1B5E018E07FD00895E8E1FAE0A4E2BE
:10011800B5E018E078D00895E0E2FAE0A2E3B5E0AF
:1001280018E071D00895E8E2FAE0A0E4B5E018E03C
:100138006AD00895E0E3FAE0A8E4B5E018E063D0F7
:100148000895E8E3FAE0A6E5B5E018E05CD0089584
:10015800E0E4FAE0A4E6B5E018E055D00895E8E454
:10016800FAE0A2E7B5E018E04ED00895E0E5FAE03D
:10017800A0E8B5E018E047D00895E8E5FAE0A8E877
:10018800B5E018E040D00895E0E6FAE0A6E9B5E069
:1001980018E039D00895E8E6FAE0A4E0B6E018E0FF
:1001A80032D00895E0E7FAE0A2E1B6E018E02BD0FB
:1001B8000895E8E7FAE0A0E2B6E018E024D0089550
:1001C800E0E8FAE0A8E2B6E018E01DD00895E8E813
:1001D800FAE0A6E3B6E018E016D00895E0E9FAE000
:1001E800A4E4B6E018E00FD00895E8E9FAE0A2E543
:1001F800B6E018E008D00895E0EAFAE0A0E6B6E034
:1002080018E001D0089545914D931A95E1F70895A6
:1002180077E08DE295E097D475E084E893E093D495
:1002280063D6089571E088E097E08DD45DD671E0DB
:1002380086ED96E088D458D671E087E296E083D4BC
:1002480053D671E088E795E07ED44ED671E082EE11
:1002580094E079D449D671E086E794E074D444D622
:1002680071E08AE094E06FD43FD671E08DE993E0C5
:100278006AD43AD671E080E393E065D435D671E06C
:1002880084EC92E060D430D671E088E592E05BD4EB
:040298002BD60895C4
:100A0000D606200308078101D6062003A406C201EA
:100A1000D606200340063F02D60620030E06BC027F
:100A200027069D031405390378054C04B0049D0383
:100A30001405B0044C041A0474045005E803B0040F
:100A40000604D20552032D059D034006EE02AA05B9
:100A50003003D606EE02AA05C4024E07EE02AA052E
:100A60005802D007EE02AA05F401F401BC02F40119
:100A7000EE02EE028403200352035203E8038403D0
:100A8000B603B6034C04E803B004B004DC057805F3
:100A9000AA05AA05DC057805A406A406DC057805E8
:100AA000D007D007DC0578054F934FEF47B948B919
:100AB00048E44093B80040E04093B9004F91089556
:100AC0004F9344EA4093BC004091BC0047FFFCCFE9
:100AD0004091B900487F483009F00C9442004F9192
:100AE00008954F9344E04093BC005093BB0044E80A
:100AF0004093BC004091BC0047FFFCCF4F9108954C
:100B00004F934091BC0047FFFCCF5091BB004F91E9
:100B100008954F9344E94093BC004091BC0040715C
:100B2000E1F74F9108955F93BFDFCADF50E8D9DF47
:100B300050E0D7DF50E2D5DFECDFC2DF50E8D1DF95
:100B40005EEFCFDF55E6CDDFE4DF5F9108955F9381
:100B5000770F770F56E0750FB3DF50E8C2DF572FDE
:100B6000C0DF50E0BEDF50E0BCDF582FBADF592FA6
:100B7000B8DFCFDF5F910895D6DF01D0089522E07E
:100B800031E0A2E1B6E01CD0A2E7B5E01DD024E040
:100B900033E0A2E1B6E014D0A2E7B5E015D026E03C
:100BA00035E0A2E1B6E00CD0A4E2B5E00DD028E03B
:100BB00037E0A2E1B6E004D0A4E2B5E005D00895A4
:100BC0008ADA722FC4DF089586DA732FC0DF0895A2
:100BD00024D001D0089522E031E0A2E1B6E0F0DFB8
:100BE000A8E4B5E0F1DF28E037E0A2E1B6E0E8DF15
:100BF000A6E1B5E0E9DF24E033E0A8E2B6E0E0DF1B
:100C0000A0E8B5E0E1DF26E035E0A8E2B6E0D8DF15
:100C1000A8E4B5E0D9DF37DA089524E033E0A2E1B3
:100C2000B6E0CEDFA8E4B5E0CFDF26E035E0A2E114
:100C3000B6E0C6DFA4E2B5E0C7DF22E031E0A8E21B
:100C4000B6E0BEDFA0E8B5E0BFDF28E037E0A8E20D
:100C5000B6E0B6DFA8E4B5E0B7DF15DA089524E022
:100C600033E0A2E1B6E0ACDFA8E4B5E0ADDF22E01E
:100C700031E0A4E0B6E0A4DFA2E7B5E0A5DF28E01C
:100C800037E0A4E0B6E09CDFA4E2B5E09DDF26E01B
:100C900035E0A2E1B6E094DFA8E4B5E095DFF3D952
:100CA00024E033E0A4E0B6E08BDFA2E7B5E08CDF20
:100CB00022E031E0A2E1B6E083DFA6E9B5E084DF1F
:100CC00028E037E0A2E1B6E07BDFA0E0B5E07CDF22
:100CD00026E035E0A4E0B6E073DFA4E2B5E074DF1F
:100CE000D2D924E033E0A2E1B6E06ADFA2E7B5E0C2
:100CF0006BDF26E035E0A2E1B6E062DFA4E2B5E01A
:100D000063DFC1D93CDF089522E031E0A2E1B6E023
:100D100057DFA8E4B5E058DF24E033E0A4E0B6E014
:100D20004FDFA2E7B5E050DF26E035E0A4E0B6E013
:100D300047DFA4E2B5E048DF28E037E0A2E1B6E013
:100D40003FDFA8E4B5E040DF9ED922E031E0A4E037
:100D5000B6E036DFA2E7B5E037DF24E033E0A2E11A
:100D6000B6E02EDFA6E9B5E02FDF26E035E0A2E110
:100D7000B6E026DFA0E0B5E027DF28E037E0A4E01A
:100D8000B6E01EDFA4E2B5E01FDF7DD922E031E04E
:100D9000A2E1B6E015DFA2E7B5E016DF28E037E014
:100DA000A2E1B6E00DDFA4E2B5E00EDF6CD9E7DE2C
:100DB000089522E031E0A4E0B6E002DFA0E8B5E06B
:100DC00003DF24E033E0A4E0B6E0FADEA0E8B5E01B
:100DD000FBDE26E035E0A4E0B6E0F2DEA2E3B5E01B
:100DE000F3DE28E037E0A4E0B6E0EADEA2E3B5E017
:100DF000EBDE7ED022E031E0A0E6B6E0E1DE78D0A6
:100E000003E0A6E9B5E0E0DE3ED9A8E4B5E0DCDE2B
:100E10003AD90A95B1F7B3DE0895AF93BF93A8E22C
:100E2000B6E059D9722F93DE63D0BF91AF9153D9F9
:100E3000732F8DDE5DD0A2E1B6E04DD9722F87DE33
:100E400057D00895A4E0B6E0BBDE52D0A2E1B6E0F0
:100E5000B7DE4ED0A0E2B6E0B3DE4AD0A8E2B6E0FC
:100E6000AFDE46D0A6E3B6E0ABDE42D0A4E4B6E007
:100E7000A7DE3ED0A2E5B6E0A3DE3AD0A0E6B6E01B
:100E80009FDE36D00895A0E0B5E09EDE31D0A8E028
:100E9000B5E09ADE2DD0A6E1B5E096DE29D0A4E239
:100EA000B5E092DE25D0A2E3B5E08EDE21D0A0E44D
:100EB000B5E08ADE1DD0A8E4B5E086DE19D0A6E54F
:100EC000B5E082DE15D0A4E6B5E07EDE11D0A2E763
:100ED000B5E07ADE0DD0A0E8B5E076DE09D0A8E86E
:100EE000B5E072DE05D0A6E9B5E06EDE01D008956A
:100EF0006F938F939F9364E68AE590E00196F1F7F4
:100F000000006A95C9F79F918F916F9108950F9393
:100F100000270093800000938200529801E0009324
:100F20006900E8983D9A0F910895662755276093C8
:100F3000850050938400E89400270093160001E098
:100F400000936F00E89A789401E000938100789410
:100F5000459A04E100000A95E9F74598FEF7E898FC
:100F6000459808956F938F939F9364E68FE590E083
:100F70000196F1F700006A95C9F79F918F916F91E3
:100F800008952D9AE89868940027009381000093B3
:100F90008100609385005093840018952D98E898FF
:100FA00000270093810068946FEF5FEF189540E091
:100FB0004093C5004FEC4093C40042E04093C00012
:100FC00040E94093C10046E04093C200089540913B
:080FD000C6004053642F189580
:00000001FF
