:020000020000FC
:0200000033C00B
:02000400B6C77D
:02003400ABC758
:02004800BAC735
:100068000FEF0DBF08E00EBF259A1DD077D593D7A7
:1000780092D678949FD5FECF2D9A08952D980895FD
:10008800FFCF9F9392E304D09A95E9F79F91089543
:100098006F938F9368EC8AEA8A95F1F76A95D9F796
:1000A8008F916F9108951ED024D02AD030D036D0A9
:1000B8003CD042D048D04ED054D05AD060D066D030
:1000C8006CD072D078D07ED084D08AD090D096D0A0
:1000D8000895032F069503958D919D910A9509F032
:1000E800FBCF0895E0E0FAE0A0E0B5E008E08DD0AD
:1000F8000895E8E0FAE0A8E0B5E008E086D00895C1
:10010800E0E1FAE0A6E1B5E008E07FD00895E8E193
:10011800FAE0A4E2B5E008E078D00895E0E2FAE079
:10012800A2E3B5E008E071D00895E8E2FAE0A0E4BF
:10013800B5E008E06AD00895E0E3FAE0A8E4B5E0A5
:1001480008E063D00895E8E3FAE0A6E5B5E008E042
:100158005CD00895E0E4FAE0A4E6B5E008E055D004
:100168000895E8E4FAE0A2E7B5E008E04ED0089583
:10017800E0E5FAE0A0E8B5E008E047D00895E8E552
:10018800FAE0A8E8B5E008E040D00895E0E6FAE033
:10019800A6E9B5E008E039D00895E8E6FAE0A4E079
:1001A800B6E008E032D00895E0E7FAE0A2E1B6E070
:1001B80008E02BD00895E8E7FAE0A0E2B6E008E00E
:1001C80024D00895E0E8FAE0A8E2B6E008E01DD0FF
:1001D8000895E8E8FAE0A6E3B6E008E016D0089546
:1001E800E0E9FAE0A4E4B6E008E00FD00895E8E911
:1001F800FAE0A2E5B6E008E008D00895E0EAFAE0FF
:10020800A0E6B6E008E001D0089505910D930A959F
:10021800E1F7089577E08DE295E08BD475E084E806
:1002280093E087D459D6089571E088E097E081D4A7
:1002380053D671E086ED96E07CD44ED671E087E225
:1002480096E077D449D671E088E795E072D444D631
:1002580071E082EE94E06DD43FD671E086E794E0D9
:1002680068D43AD671E08AE094E063D435D671E078
:100278008DE993E05ED430D671E080E393E059D401
:100288002BD671E084EC92E054D426D671E088E550
:0802980092E04FD421D6089535
:100A0000D606200308078101D6062003A406C201EA
:100A1000D606200340063F02D60620030E06BC027F
:100A200027069D031405390378054C04B0049D0383
:100A30001405B0044C041A0474045005E803B0040F
:100A40000604D20552032D059D034006EE02AA05B9
:100A50003003D606EE02AA05C4024E07EE02AA052E
:100A60005802D007EE02AA05F401F401BC02F40119
:100A7000EE02EE028403200352035203E8038403D0
:100A8000B603B6034C04E803B004B004DC057805F3
:100A9000AA05AA05DC057805A406A406DC057805E8
:100AA000D007D007DC0578050FEF07B908B908E4CF
:100AB0000093B80000E00093B900089504EA0093A1
:100AC000BC000091BC0007FFFCCF0091B900087F7B
:100AD000083009F00C944400089504E00093BC0031
:100AE0005093BB0004E80093BC000091BC0007FFDA
:100AF000FCCF08950091BC0007FFFCCF5091BB00D4
:100B0000089504E90093BC000091BC000071E1F776
:100B100008955F93C9DFD2DF50E8DFDF50E0DDDF0B
:100B200050E2DBDFEEDFCADF50E8D7DF5EEFD5DF74
:100B300055E6D3DFE6DF5F9108955F93770F770F78
:100B400056E0750FBBDF50E8C8DF572FC6DF50E017
:100B5000C4DF50E0C2DF582FC0DF592FBEDFD1DF26
:100B60005F910895D6DF01D0089522E031E0A2E13F
:100B7000B6E01CD0A2E7B5E01DD024E033E0A2E14E
:100B8000B6E014D0A2E7B5E015D026E035E0A2E14A
:100B9000B6E00CD0A4E2B5E00DD028E037E0A2E149
:100BA000B6E004D0A4E2B5E005D0089596DA722F3D
:100BB000C4DF089592DA732FC0DF089524D001D0E6
:100BC000089522E031E0A2E1B6E0F0DFA8E4B5E06C
:100BD000F1DF28E037E0A2E1B6E0E8DFA6E1B5E02A
:100BE000E9DF24E033E0A8E2B6E0E0DFA0E8B5E02A
:100BF000E1DF26E035E0A8E2B6E0D8DFA8E4B5E022
:100C0000D9DF43DA089524E033E0A2E1B6E0CEDF95
:100C1000A8E4B5E0CFDF26E035E0A2E1B6E0C6DF2C
:100C2000A4E2B5E0C7DF22E031E0A8E2B6E0BEDF33
:100C3000A0E8B5E0BFDF28E037E0A8E2B6E0B6DF25
:100C4000A8E4B5E0B7DF21DA089524E033E0A2E1BB
:100C5000B6E0ACDFA8E4B5E0ADDF22E031E0A4E02F
:100C6000B6E0A4DFA2E7B5E0A5DF28E037E0A4E026
:100C7000B6E09CDFA4E2B5E09DDF26E035E0A2E12E
:100C8000B6E094DFA8E4B5E095DFFFD924E033E0D7
:100C9000A4E0B6E08BDFA2E7B5E08CDF22E031E034
:100CA000A2E1B6E083DFA6E9B5E084DF28E037E023
:100CB000A2E1B6E07BDFA0E0B5E07CDF26E035E036
:100CC000A4E0B6E073DFA4E2B5E074DFDED924E08F
:100CD00033E0A2E1B6E06ADFA2E7B5E06BDF26E031
:100CE00035E0A2E1B6E062DFA4E2B5E063DFCDD992
:100CF0003CDF089522E031E0A2E1B6E057DFA8E44E
:100D0000B5E058DF24E033E0A4E0B6E04FDFA2E72F
:100D1000B5E050DF26E035E0A4E0B6E047DFA4E22E
:100D2000B5E048DF28E037E0A2E1B6E03FDFA8E425
:100D3000B5E040DFAAD922E031E0A4E0B6E036DF3A
:100D4000A2E7B5E037DF24E033E0A2E1B6E02EDF32
:100D5000A6E9B5E02FDF26E035E0A2E1B6E026DF28
:100D6000A0E0B5E027DF28E037E0A4E0B6E01EDF32
:100D7000A4E2B5E01FDF89D922E031E0A2E1B6E0CC
:100D800015DFA2E7B5E016DF28E037E0A2E1B6E024
:100D90000DDFA4E2B5E00EDF78D9E7DE089522E0AA
:100DA00031E0A4E0B6E002DFA0E8B5E003DF24E034
:100DB00033E0A4E0B6E0FADEA0E8B5E0FBDE26E032
:100DC00035E0A4E0B6E0F2DEA2E3B5E0F3DE28E031
:100DD00037E0A4E0B6E0EADEA2E3B5E0EBDE80D0E7
:100DE00022E031E0A0E6B6E0E1DE7AD003E00F9346
:100DF000A6E9B5E0DFDE49D9A8E4B5E0DBDE45D9F8
:100E00000F910A95A1F7B1DE0895AF93BF93A8E2C1
:100E1000B6E063D9722F91DE63D0BF91AF915DD9F7
:100E2000732F8BDE5DD0A2E1B6E057D9722F85DE3D
:100E300057D00895A4E0B6E0B9DE52D0A2E1B6E002
:100E4000B5DE4ED0A0E2B6E0B1DE4AD0A8E2B6E010
:100E5000ADDE46D0A6E3B6E0A9DE42D0A4E4B6E01B
:100E6000A5DE3ED0A2E5B6E0A1DE3AD0A0E6B6E02F
:100E70009DDE36D00895A0E0B5E09CDE31D0A8E03C
:100E8000B5E098DE2DD0A6E1B5E094DE29D0A4E24D
:100E9000B5E090DE25D0A2E3B5E08CDE21D0A0E461
:100EA000B5E088DE1DD0A8E4B5E084DE19D0A6E563
:100EB000B5E080DE15D0A4E6B5E07CDE11D0A2E777
:100EC000B5E078DE0DD0A0E8B5E074DE09D0A8E882
:100ED000B5E070DE05D0A6E9B5E06CDE01D008957E
:100EE0006F938F939F9364E68AE590E00196F1F704
:100EF00000006A95C9F79F918F916F9108950F93A4
:100F000000270093800000938200529801E0009334
:100F10006900E8983D9A0F910895662755276093D8
:100F2000850050938400E89400270093160001E0A8
:100F300000936F00E89A789401E000938100789420
:100F4000459A04E100000A95E9F74598FEF7E8980C
:100F5000459808956F938F939F9364E68FE590E093
:100F60000196F1F700006A95C9F79F918F916F91F3
:100F700008952D9AE89868940027009381000093C3
:100F80008100609385005093840018952D98E8980F
:100F900000270093810068946FEF5FEF189500E0E1
:100FA0000093C5000FEC0093C40002E00093C00062
:100FB00000E90093C10006E00093C200089500918B
:080FC000C6000053102F189524
:00000001FF
