:020000020000FC
:0200000033C00B
:100068000FEF0DBF08E00EBF65D0FFCFFFCF4FEFFA
:1000780047B948B948E44093B80040E04093B90014
:10008800089544EA4093BC004091BC0047FFFCCF70
:100098004091B900487F483009F00C943A0008951F
:1000A80044E04093BC005093BB0044E84093BC003C
:1000B8004091BC0047FFFCCF089544EC4093BC003E
:1000C80003C044E84093BC004091BC0047FFFCCF0C
:1000D8005091BB00089544E94093BC004091BC0096
:1000E8004071E1F708955F93C2DFCBDF50E8D8DFB6
:1000F80050E0D6DF50E2D4DFEEDFC3DF50E8D0DFD8
:100108005EEFCEDF55E6CCDFE6DF5F9108955F93C3
:10011800880F880F56E0850FB4DF50E8C1DF50E044
:10012800BFDF50E0BDDF592FBBDF5A2FB9DFD3DF68
:080138005F910895D8DF0895DE
:00000001FF
