:020000020000FC
:0200000033C00B
:020028006DC0A9
:0200340060C0AA
:0200480095C061
:1000680008E00EBF0FEF0DBF259A87D077D56DD06A
:1000780020D004D097D5FECF2D9A08952D980895B5
:10008800FFCF9F9392E304D09A95E9F79F91089543
:100098006F938F9368EC8AEA8A95F1F76A95D9F796
:1000A8008F916F9108956F9362E36A95F1F76F915D
:1000B8000895229A01EC009385000FE700938400CD
:1000C8000FEF009389000FEF0093880001EC009375
:1000D8008B0002E800938A0003E2009380000BE1A2
:1000E8000093810001E200936F007894089501EC79
:1000F800009385000FE700938400189500E00093B3
:100108006F0010918600209187001258214C889426
:100118000FE0101B01E0200B0CF005C001E000937C
:100128002A00AADF05C002E000932A00A7DF00C06A
:10013800189500E000932A00DADF01E200936F00CF
:1001480000912A000030E1F3089500E00093C50013
:100158000FEC0093C40002E00093C00000E9009394
:10016800C10006E00093C20078940895F8940091C5
:10017800C600005300931E0018951ED024D02AD024
:1001880030D036D03CD042D048D04ED054D05AD0BF
:1001980060D066D06CD072D078D07ED084D08AD02F
:1001A80090D096D00895042F069503958D919D9132
:1001B8000A9509F0FBCF0895E0E0FAE0A0E0B5E089
:1001C80008E08DD00895E8E0FAE0A8E0B5E008E09E
:1001D80086D00895E0E1FAE0A6E1B5E008E07FD036
:1001E8000895E8E1FAE0A4E2B5E008E078D00895DF
:1001F800E0E2FAE0A2E3B5E008E071D00895E8E2B1
:10020800FAE0A0E4B5E008E06AD00895E0E3FAE097
:10021800A8E4B5E008E063D00895E8E3FAE0A6E5CD
:10022800B5E008E05CD00895E0E4FAE0A4E6B5E0C3
:1002380008E055D00895E8E4FAE0A2E7B5E008E060
:100248004ED00895E0E5FAE0A0E8B5E008E047D030
:100258000895E8E5FAE0A8E8B5E008E040D0089598
:10026800E0E6FAE0A6E9B5E008E039D00895E8E666
:10027800FAE0A4E0B6E008E032D00895E0E7FAE05A
:10028800A2E1B6E008E02BD00895E8E7FAE0A0E2A2
:10029800B6E008E024D00895E0E8FAE0A8E2B6E085
:1002A80008E01DD00895E8E8FAE0A6E3B6E008E023
:1002B80016D00895E0E9FAE0A4E4B6E008E00FD02B
:1002C8000895E8E9FAE0A2E5B6E008E008D0089564
:1002D800E0EAFAE0A0E6B6E008E001D0089505916A
:1002E8000D930A95E1F7089577E08DE295E021D422
:1002F80075E084E893E01DD48ED4089571E088E019
:1003080097E017D488D471E086ED96E012D483D4B0
:1003180071E087E296E00DD47ED471E088E795E03D
:1003280008D479D471E082EE94E003D474D471E0F7
:1003380086E794E0FED36FD471E08AE094E0F9D3C5
:100348006AD471E08DE993E0F4D365D471E080E379
:1003580093E0EFD360D471E084EC92E0EAD35BD40D
:0C03680071E088E592E0E5D356D40895DA
:100A0000D606200308078101D6062003A406C201EA
:100A1000D606200340063F02D60620030E06BC027F
:100A200027069D031405390378054C04B0049D0383
:100A30001405B0044C041A0474045005E803B0040F
:100A40000604D20552032D059D034006EE02AA05B9
:100A50003003D606EE02AA05C4024E07EE02AA052E
:100A60005802D007EE02AA05F401F401BC02F40119
:100A7000EE02EE028403200352035203E8038403D0
:100A8000B603B6034C04E803B004B004DC057805F3
:100A9000AA05AA05DC057805A406A406DC057805E8
:100AA000D007D007DC0578050FEF07B908B908E4CF
:100AB0000093B80000E00093B900089504EA0093A1
:100AC000BC000091BC0007FFFCCF0091B900087F7B
:100AD000083009F00C944400089504E00093BC0031
:100AE0005093BB0004E80093BC000091BC0007FFDA
:100AF000FCCF08950091BC0007FFFCCF5091BB00D4
:100B0000089504E90093BC000091BC000071E1F776
:100B100008955F93C9DFD2DF50E8DFDF50E0DDDF0B
:100B200050E2DBDFEEDFCADF50E8D7DF5EEFD5DF74
:100B300055E6D3DFE6DF5F9108955F93770F770F78
:100B400056E0750FBBDF50E8C8DF572FC6DF50E017
:100B5000C4DF50E0C2DF582FC0DF592FBEDFD1DF26
:100B60005F910895D6DF01D0089532E041E0A2E11F
:100B7000B6E064D0A2E7B5E065D034E043E0A2E19E
:100B8000B6E05CD0A2E7B5E05DD036E045E0A2E19A
:100B9000B6E054D0A4E2B5E055D038E047E0A2E199
:100BA000B6E04CD0A4E2B5E04DD0089500911E000F
:100BB000003089F00130B9F0023029F00330D9F06B
:100BC0000630D9F0089521D0B8DA00912A00023019
:100BD000B1F483D008951ED0B0DA00912A0002301B
:100BE00071F4D0D008950CD0A8DA00912A00023018
:100BF00031F42CD00895B9DF089519D10895B5CFF7
:100C000070E088EE93E099DF089570E084EF91E062
:100C100094DF089570E08CED95E08FDF08956F9379
:100C20008F939F9364E68AE590E00196F1F70000C8
:100C30006A95C9F79F918F916F910895B8DA732FD4
:100C40007CDF0895B4DA742F78DF089524D001D0C2
:100C5000089532E041E0A2E1B6E0F0DFA8E4B5E0BB
:100C6000F1DF38E047E0A2E1B6E0E8DFA6E1B5E079
:100C7000E9DF34E043E0A8E2B6E0E0DFA0E8B5E079
:100C8000E1DF36E045E0A8E2B6E0D8DFA8E4B5E071
:100C9000D9DFFBD9089534E043E0A2E1B6E0CEDF2E
:100CA000A8E4B5E0CFDF36E045E0A2E1B6E0C6DF7C
:100CB000A4E2B5E0C7DF32E041E0A8E2B6E0BEDF83
:100CC000A0E8B5E0BFDF38E047E0A8E2B6E0B6DF75
:100CD000A8E4B5E0B7DFD9D9089534E043E0A2E154
:100CE000B6E0ACDFA8E4B5E0ADDF32E041E0A4E07F
:100CF000B6E0A4DFA2E7B5E0A5DF38E047E0A4E076
:100D0000B6E09CDFA4E2B5E09DDF36E045E0A2E17D
:100D1000B6E094DFA8E4B5E095DFB7D934E043E06E
:100D2000A4E0B6E08BDFA2E7B5E08CDF32E041E083
:100D3000A2E1B6E083DFA6E9B5E084DF38E047E072
:100D4000A2E1B6E07BDFA0E0B5E07CDF36E045E085
:100D5000A4E0B6E073DFA4E2B5E074DF96D934E036
:100D600043E0A2E1B6E06ADFA2E7B5E06BDF36E080
:100D700045E0A2E1B6E062DFA4E2B5E063DF85D939
:100D8000F4DE089532E041E0A2E1B6E057DFA8E4E6
:100D9000B5E058DF34E043E0A4E0B6E04FDFA2E77F
:100DA000B5E050DF36E045E0A4E0B6E047DFA4E27E
:100DB000B5E048DF38E047E0A2E1B6E03FDFA8E475
:100DC000B5E040DF62D932E041E0A4E0B6E036DFD2
:100DD000A2E7B5E037DF34E043E0A2E1B6E02EDF82
:100DE000A6E9B5E02FDF36E045E0A2E1B6E026DF78
:100DF000A0E0B5E027DF38E047E0A4E0B6E01EDF82
:100E0000A4E2B5E01FDF41D932E041E0A2E1B6E063
:100E100015DFA2E7B5E016DF38E047E0A2E1B6E073
:100E20000DDFA4E2B5E00EDF30D99FDE089532E099
:100E300041E0A4E0B6E002DFA0E8B5E003DF34E083
:100E400043E0A4E0B6E0FADEA0E8B5E0FBDE36E081
:100E500045E0A4E0B6E0F2DEA2E3B5E0F3DE38E080
:100E600047E0A4E0B6E0EADEA2E3B5E0EBDED7DEE1
:100E700032E041E0A0E6B6E0E1DED1DE03E00F9330
:100E8000A6E9B5E0DFDE01D9A8E4B5E0DBDEFDD8F8
:100E90000F910A95A1F769DE0895AF93BF93A8E279
:100EA000B6E085D9732F49DEBADEBF91AF917FD905
:100EB000742F43DEB4DEA2E1B6E079D9732F3DDEB4
:100EC000AEDE0895A4E0B6E0B9DEA9DEA2E1B6E0A8
:100ED000B5DEA5DEA0E2B6E0B1DEA1DEA8E2B6E0B6
:100EE000ADDE9DDEA6E3B6E0A9DE99DEA4E4B6E0C1
:100EF000A5DE95DEA2E5B6E0A1DE91DEA0E6B6E0D5
:100F00009DDE8DDE0895A0E0B5E09CDE88DEA8E0E1
:100F1000B5E098DE84DEA6E1B5E094DE80DEA4E2F2
:100F2000B5E090DE7CDEA2E3B5E08CDE78DEA0E406
:100F3000B5E088DE74DEA8E4B5E084DE70DEA6E508
:100F4000B5E080DE6CDEA4E6B5E07CDE68DEA2E71C
:100F5000B5E078DE64DEA0E8B5E074DE60DEA8E827
:100F6000B5E070DE5CDEA6E9B5E06CDE58DE089523
:00000001FF
