:020000020000FC
:0200000033C00B
:020004007DC1BC
:02003C006EC193
:100068000FEF0DBF08E00EBF259A74D0A8E5B2E0E7
:100078009BD0A8E7B5E098D0F9CF2D9A08952D9890
:100088000895FFCF4F934FEF47B948B948E44093DD
:10009800B80040E04093B9004F9108954F9344EA67
:1000A8004093BC004091BC0047FFFCCF4091B90091
:1000B800487F483009F00C9445004F9108954F93BC
:1000C80044E04093BC005093BB0044E84093BC001C
:1000D8004091BC0047FFFCCF4F9108954F9340914A
:1000E800BC0047FFFCCF5091BB004F9108954F9340
:1000F80044E94093BC004091BC004071E1F74F9146
:1001080008955F93BFDFCADF50E8D9DF50E0D7DF3B
:1001180050E2D5DFECDFC2DF50E8D1DF5EEFCFDFA2
:1001280055E6CDDFE4DF5F9108955F93770F770F92
:1001380056E0750FB3DF50E8C2DF572FC0DF50E03D
:10014800BEDF50E0BCDF582FBADF592FB8DFCFDF52
:100158005F910895D6DF71E088EE93E0E6DF83D003
:1001680072E084EF91E0E1DF7ED073E08CED95E002
:10017800DCDF79D074E084EF91E0D7DF74D075E0EC
:1001880088E795E0D2DF6FD076E08CEB92E0CDDFA8
:100198006AD077E080E293E0C8DF65D078E084EF4A
:1001A80091E0C3DF60D0089572E088EE93E0BDDF90
:1001B8005AD071E08A2F9B2FB8DF55D072E084EFB8
:1001C80091E0B3DF50D0089574E088EE93E0ADDF9E
:1001D8004AD073E08A2F9B2FA8DF45D074E084EFC4
:1001E80091E0A3DF40D0089576E080EB94E09DDFB6
:1001F8003AD075E08A2F9B2F98DF35D076E08CEBCC
:1002080092E093DF30D0089578E088EE93E08DDFB8
:100218002AD077E08A2F9B2F88DF25D078E084EFDB
:1002280091E083DF20D0089570E084EF91E07DDFD6
:100238001AD070E088EE93E078DF15D071E084EA98
:1002480096E073DF10D070E084EF91E06EDF0BD0A2
:1002580070E088EE93E069DF06D071E088EE93E005
:1002680064DF01D008956F938F939F9364E68AE5C6
:1002780090E00196F1F700006A95C9F79F918F9178
:100288006F9108950F9300270093800000938200D8
:10029800529801E000936900E8983D9A0F910895FB
:1002A800662755276093850050938400E8940027BB
:1002B8000093160001E000936F00E89A789401E03B
:1002C800009381007894459A04E100000A95E9F7C3
:1002D8004598FEF7E898459808956F938F939F93F4
:1002E80064E68FE590E00196F1F700006A95C9F79A
:1002F8009F918F916F9108952D9AE898689400279F
:1003080000938100009381006093850050938400DE
:1003180018952D98E89800270093810068946FEF4E
:040328005FEF1895D6
:00000001FF
