:020000020000FC
:0200000033C00B
:02000400FEC03C
:02003C00EFC013
:100068000FEF0DBF08E00EBF259A6FD070D0FECFFE
:100078002D9A08952D980895FFCF4F934FEF47B9C4
:1000880048B948E44093B80040E04093B9004F9124
:1000980008954F9344EA4093BC004091BC0047FF49
:1000A800FCCF4091B900487F483009F00C944000DB
:1000B8004F9108954F9344E04093BC005093BB0088
:1000C80044E84093BC004091BC0047FFFCCF4F91EF
:1000D80008954F934091BC0047FFFCCF5091BB005F
:1000E8004F9108954F9344E94093BC004091BC0060
:1000F8004071E1F74F9108955F93BFDFCADF50E881
:10010800D9DF50E0D7DF50E2D5DFECDFC2DF50E8BF
:10011800D1DF5EEFCFDF55E6CDDFE4DF5F910895F5
:100128005F93770F770F56E0750FB3DF50E8C2DFA4
:10013800572FC0DF50E0BEDF50E0BCDF582FBADFDA
:10014800592FB8DFCFDF5F910895D6DF08950CD01F
:100158002D9A70E084EF91E0E3DF06D02D9870E0EF
:1001680088E29AE0DDDF08956F938F939F9364E6AA
:100178008AE590E00196F1F700006A95C9F79F912A
:100188008F916F9108950F9300270093800000933B
:100198008200529801E000936900E8983D9A0F9117
:1001A8000895662755276093850050938400E89446
:1001B80000270093160001E000936F00E89A7894F6
:1001C80001E0009381007894459A04E100000A95C3
:1001D800E9F74598FEF7E898459808956F938F9347
:1001E8009F9364E68FE590E00196F1F700006A9529
:1001F800C9F79F918F916F9108952D9AE898689407
:10020800002700938100009381006093850050933C
:10021800840018952D98E898002700938100689429
:060228006FEF5FEF189577
:00000001FF
